:1000C90011082020205741524E494E472121212015
:1000D900202000111941626F757420746F206578B2
:0600E900706C6F646500FD
:0200F000A9075E
:1000F200E4FFFEE9FBC3EF9BEE94005015E4FCFD28
:100102000DBD00010CED64784C70F50FBF00010EBF
:0201120080E18A
:0101140022C8
:0D013B00D2B5C2B6C2B78F90D2B7C2B722FC
:10012900C2B5C2B6C2B78F907F051200F0D2B7C26E
:02013900B722EB
:100115007F381201297F0C1201297F061201297FE0
:0401250001020129A9
:10008F00E4F52AF52BF582F5837F80120129740898
:10009F00252BF8E6FF600D12013B052BE52B70EECB
:1000AF00052A80EA7FC0120129AF8274192FF8E662
:0900BF00FF600612013BA380F072
:0100C8002215
:0801480012011512008F80FB6B
:03000000020003F8
:0C000300787FE4F6D8FD75812B02004ADE
:10000F00020148E493A3F8E493A34003F68001F2BE
:10001F0008DFF48029E493A3F85407240CC8C333F2
:10002F00C4540F4420C8834004F456800146F6DFC1
:10003F00E4800B01020408102040809000C9E47E88
:10004F00019360BCA3FF543F30E509541FFEE493B6
:10005F00A360010ECF54C025E060A840B8E493A37D
:10006F00FAE493A3F8E493A3C8C582C8CAC583CAA8
:10007F00F0A3C8C582C8CAC583CADFE9DEE780BE60
:0100EF000010
:00000001FF
